:03000000020AA150
:0C0AA100787FE4F6D8FD75812A020AE88F
:100B5400416363657373204772616E746564004119
:0D0B640063636573732044656E696564000A
:040BA900022900001D
:070B2D00120B837F1E7E0006
:100B3400E4FDFCC3ED9FEC9E5015E4FBFA0BBB00F7
:0F0B4400010ABA04F8BBFBF50DBD00010C80E4FB
:010B5300227F
:100B71008FA0C2B5C2B6D2B77F017E00120B34C2BC
:020B8100B72299
:100B83008FA0D2B5C2B6D2B77F017E00120B34C29A
:020B9300B72287
:0C0B9500759850758920758DFDD28E2258
:080BA1008F993099FDC29922E1
:1008000078087C007D007BFF7A0B79547E007F0F97
:10081000120A7B78177C007D007BFF7A0B79637E60
:10082000007F0E120A7BE4F5A07F38120B717F0166
:10083000120B717F84120B717F0F120B71E4F58321
:10084000F582C3E5829404E58394004003020935F0
:10085000C290D291D292D29320940E7F31120B2D5E
:10086000AF8274252FF87631A320950E7F32120BBC
:100870002DAF8274252FF87632A320960E7F331287
:100880000B2DAF8274252FF87633A3D290C291201E
:10089000940E7F34120B2DAF8274252FF87634A37B
:1008A00020950E7F35120B2DAF8274252FF87635EB
:1008B000A320960E7F36120B2DAF8274252FF8766B
:1008C00036A3D291C29220940E7F37120B2DAF82A5
:1008D00074252FF87637A320950E7F38120B2DAF95
:1008E0008274252FF87638A320960E7F39120B2DAF
:1008F000AF8274252FF87639A3D292C29320940E3A
:100900007F2A120B2DAF8274252FF8762AA320950B
:100910000E7F30120B2DAF8274252FF87630A32076
:10092000960E7F23120B2DAF8274252FF87623A30A
:10093000D2930208427F01120B71E52564307039B1
:10094000E52664307033E5276430702DE528643087
:100950007027120B95F529F52A7408252AF8E6FF69
:10096000603F120B837408252AF8E6FF120BA105DD
:100970002AE52A70E4052980E0120B95E4F529F5B3
:100980002A7417252AF8E6FF6017120B83741725BF
:100990002AF8E6FF120BA1052AE52A70E405298052
:0B09A000E07F2C7E01120B34020826C1
:100AAD00020800E493A3F8E493A34003F68001F257
:100ABD0008DFF48029E493A3F85407240CC8C3334A
:100ACD00C4540F4420C8834004F456800146F6DF19
:100ADD00E4800B0102040810204080900BA9E47EF5
:100AED00019360BCA3FF543F30E509541FFEE4930E
:100AFD00A360010ECF54C025E060A840B8E493A3D5
:100B0D00FAE493A3F8E493A3C8C582C8CAC583CAFF
:100B1D00F0A3C8C582C8CAC583CADFE9DEE780BEB7
:010BAD000047
:1009AB00E709F608DFFA8046E709F208DFFA803E2E
:1009BB0088828C83E709F0A3DFFA8032E309F6081B
:1009CB00DFFA8078E309F208DFFA807088828C8383
:1009DB00E309F0A3DFFA806489828A83E0A3F60837
:1009EB00DFFA805889828A83E0A3F208DFFA804C11
:1009FB0080D280FA80C680D4806980F280338010E8
:100A0B0080A680EA809A80A880DA80E280CA803350
:100A1B0089828A83ECFAE493A3C8C582C8CCC583C8
:100A2B00CCF0A3C8C582C8CCC583CCDFE9DEE78098
:100A3B000D89828A83E493A3F608DFF9ECFAA9F017
:100A4B00EDFB2289828A83ECFAE0A3C8C582C8CC6D
:100A5B00C583CCF0A3C8C582C8CCC583CCDFEADE86
:100A6B00E880DB89828A83E493A3F208DFF980CCE8
:100A7B0088F0EF60010E4E60C388F0ED2402B404E1
:100A8B000050B9F582EB2402B4040050AF23234588
:060A9B0082239009FB73A9
:00000001FF
